:020000040000FA
:080000000F013A9F000E02D02F
:0800080004EF04F082AE0FD0FA
:08001000F66E080EF76E02D037
:080018000CEF04F0000EF86E7D
:100020000900F53C00EF04F00900F53CFBD720EE99
:1000300000F0700ED3129B8C82AEFED7900EAB6E8A
:10004000260EAC6EB886020ED56EF26BF46BF66BB4
:10005000AB98AE50AE50D76AD66AF2945FD8D58EC0
:100060005DD8D59EF2B4F7D7D6CFAFFFD7CFB0FFCC
:10007000AB8843D90F0AECE10F0E929C899C0400D7
:1000800055D9040035D9898C928C00EE04F035D90D
:100090000F0AF2E00250040A07E00250050A01E1EB
:1000A0002CD902C0ECFFF3D710EE05F0006A016A0C
:1000B000EDCFF4FFE6503AD8E250EA62FBD7E150C8
:1000C000E962F8D70150F462C3D70050EF62C0D79D
:1000D000006A016A0650F66EA96E0750F76EAA6EA6
:0E00E00008C0F8FF00EE0BF00A0E0560B1D765
:10010000F9500544F92628D030D03AD050D07DD0CF
:10011000A9D0B6D0C5D086D709D1FF000400F2B46B
:10012000120082BEFCD782AEFED71200011800C0BA
:1001300001F0006EE83A0F0B001A0038F00B011ABC
:100140000038E844011AE00B011A001A12000004FA
:100150000105FF84000000004E0EF66E010EF76EE2
:10016000000EF86E0A0E0A6E0C6A0900F550B4D83B
:10017000DDDF0A06000E0C5A0A500C10F6E19ED084
:100180000900F550D3DFF6503F0BFAE100506CEC5C
:1001900001F001506CEC01F00A06000E0C5A0A50F6
:1001A0000C10EEE18FD0FF00FF00FF00FF00C00E3B
:1001B000F616000EF65C000EF758010EF85802E62F
:1001C000A66A17D0000EF65C000EF758000EF8581D
:1001D0000DE6000EF65C040EF758000EF85806E720
:1001E000A66A07D0FF00FF00FF00FF00940EA66E76
:1001F00095D8400EF65EE86AF75AF85A0A2ED7D715
:1002000059D0FF00FF00FF00FF00C00EF616000EE1
:10021000F65C000EF758010EF85802E6A66A16D0F2
:10022000000EF65C000EF758000EF8580DE6000EB2
:10023000F65C040EF758000EF85806E7A66A06D0DA
:10024000FF00FF00FF00FF00840EA66EEECFF5FF5B
:100250000D00F6503F0BFAE10A0060D809000A2EA3
:10026000D4D728D0A66AA680A850A94AAA2A34D8EA
:100270005DDF0A06000E0C5A0A500C10F4E11ED085
:10028000040EA66EECCFA8FF49D8A6B2FED7A94AA5
:10029000AA2A0A06000E0C5A0A500C10F3E10AD0E2
:1002A000C40EA66E0800EE50F56236D80B000A2E7A
:1002B000FAD700D0A66A05500FD838DF00500CD806
:1002C00001500AD8040E929C899C12D804002ED8A2
:1002D0000400898C928CCDD6036E0F0A06E0035081
:1002E000040A03E00350050A02E1050E01D8035099
:1002F00004009EA8FED7AD6E1200ABB2FF00040052
:100300009EAAFDD7AE50026E120000000000000051
:10031000FF00FF00FF00A66AF56E0C000400550EFA
:10032000A76EAA0EA76EA682000012000400FF0EA0
:10033000F06FF04F1200000000000000000000000D
:1003400000000000000000000000000000000000AD
:10035000000000000000000000000000000000009D
:10036000000000000000000000000000000000008D
:10037000000000000000DDD7000000000000D9D719
:10038000000000000000D5D7000000000000D1D719
:0E039000000000000000CDD7000000000000BB
:020000040030CA
:0100010028D6
:0100020019E4
:0100030012EA
:01000500BD3D
:010006008178
:0100080000F7
:0100090040B6
:01000A000FE6
:01000B00E014
:01000C000FE4
:01000D0040B2
:00000001FF
