:020000040000FA
:080000000F013A9F000E02D02F
:0800080004EF04F082AE0FD0FA
:08001000F66E080EF76E02D037
:080018000CEF04F0000EF86E7D
:100020000900F53C00EF04F00900F53CFBD720EE99
:1000300000F0700ED3129B8C82AEFED7900EAB6E8A
:10004000260EAC6EB886020ED56EF26BF46BF66BB4
:10005000AB98AE50AE50D76AD66AF2945FD8D58EC0
:100060005DD8D59EF2B4F7D7D6CFAFFFD7CFB0FFCC
:10007000AB8843D90F0AECE10F0E929C899C0400D7
:1000800055D9040035D9898C928C00EE04F035D90D
:100090000F0AF2E00250040A07E00250050A01E1EB
:1000A0002CD902C0ECFFF3D710EE05F0006A016A0C
:1000B000EDCFF4FFE6503AD8E250EA62FBD7E150C8
:1000C000E962F8D70150F462C3D70050EF62C0D79D
:1000D000006A016A0650F66EA96E0750F76EAA6EA6
:0E00E00008C0F8FF00EE0BF00A0E0560B1D765
:10010000F9500544F92628D030D03AD050D07DD0CF
:10011000A9D0B6D0C5D086D709D1FF000400F2B46B
:10012000120082BEFCD782AEFED71200011800C0BA
:1001300001F0006EE83A0F0B001A0038F00B011ABC
:100140000038E844011AE00B011A001A12000004FA
:100150000105FF84000000004E0EF66E010EF76EE2
:10016000000EF86E0A0E0A6E0C6A0900F550B4D83B
:10017000DDDF0A06000E0C5A0A500C10F6E19ED084
:100180000900F550D3DFF6503F0BFAE100506CEC5C
:1001900001F001506CEC01F00A06000E0C5A0A50F6
:1001A0000C10EEE18FD0FF00FF00FF00FF00C00E3B
:1001B000F616000EF65C000EF758010EF85802E62F
:1001C000A66A17D0000EF65C000EF758000EF8581D
:1001D0000DE6000EF65C040EF758000EF85806E720
:1001E000A66A07D0FF00FF00FF00FF00940EA66E76
:1001F00095D8400EF65EE86AF75AF85A0A2ED7D715
:1002000059D0FF00FF00FF00FF00C00EF616000EE1
:10021000F65C000EF758010EF85802E6A66A16D0F2
:10022000000EF65C000EF758000EF8580DE6000EB2
:10023000F65C040EF758000EF85806E7A66A06D0DA
:10024000FF00FF00FF00FF00840EA66EEECFF5FF5B
:100250000D00F6503F0BFAE10A0060D809000A2EA3
:10026000D4D728D0A66AA680A850A94AAA2A34D8EA
:100270005DDF0A06000E0C5A0A500C10F4E11ED085
:10028000040EA66EECCFA8FF49D8A6B2FED7A94AA5
:10029000AA2A0A06000E0C5A0A500C10F3E10AD0E2
:1002A000C40EA66E0800EE50F56236D80B000A2E7A
:1002B000FAD700D0A66A05500FD838DF00500CD806
:1002C00001500AD8040E929C899C12D804002ED8A2
:1002D0000400898C928CCDD6036E0F0A06E0035081
:1002E000040A03E00350050A02E1050E01D8035099
:1002F00004009EA8FED7AD6E1200ABB2FF00040052
:100300009EAAFDD7AE50026E120000000000000051
:10031000FF00FF00FF00A66AF56E0C000400550EFA
:10032000A76EAA0EA76EA682000012000400FF0EA0
:10033000F06FF04F1200000000000000000000000D
:1003400000000000000000000000000000000000AD
:10035000000000000000000000000000000000009D
:10036000000000000000000000000000000000008D
:10037000000000000000DDD7000000000000D9D719
:10038000000000000000D5D7000000000000D1D719
:0E039000000000000000CDD7000000000000BB
:04080000D8EF09F034
:100808005482FACF1AF0FBCF1BF0E9CF1CF0EACFE5
:100818001DF0E1CF1EF0E2CF1FF0D9CF20F0DACFE4
:1008280021F0F3CF22F0F4CF23F0F6CF24F0F7CF66
:1008380025F0F8CF26F0F5CF27F09DBA9EAA03D071
:10084800AECF2FF0FBD7A3BAA4AA60D274CF2FF0F3
:100858008B984150010D8C0EF324D96E030EF420B1
:10086800DA6E2FC0DFFF412A130E416402D0130E47
:10087800416E0A0E2F18D8A4E7D7060E41644AD055
:10088800000E286EF90E156EFF0E166E4150176E8B
:10089800186A15501726165018228C0E1724D96E70
:1008A800030E1820DA6E240EDE18D8A433D0FE0EFC
:1008B800156EFF0E166E4150176E186A15501726E2
:1008C800165018228C0E1724D96E030E1820DA6ED3
:1008D8000D0EDE18D8A41ED04150F90F306E14D07A
:1008E8003050010D8C0EF324D96E030EF420DA6E0D
:1008F8002850010D8C0EF324E16E030EF420E26EF5
:10090800DFCFE7FF282A302A4150305CD8A0E8D74B
:10091800070E416E240E03018C19D8A4F1D10D0ED7
:1009280003019119D8A4ECD10A0E03019219D8A495
:10093800E7D10A0E0201E86F8A98010E416E415014
:10094800010D8C0EF324D96E030EF420DA6EDF50FD
:10095800156E15380F0B0F0B2F6E090E2F6405D06F
:10096800410E2F260A0E2F5E02D0300E2F26FE0EC5
:10097800156EFF0E166E4150176E186AD89017360E
:1009880018361550172616501822290E1724D96E16
:10099800000E1820DA6E2FC0DFFF4150010D8C0EBB
:1009A800F324D96E030EF420DA6EDF500F0B2F6E8E
:1009B800090E2F6405D0410E2F260A0E2F5E02D095
:1009C800300E2F26FF0E156EFF0E166E4150176E55
:1009D800186AD89017361836155017261650182248
:1009E800290E1724D96E000E1820DA6E2FC0DFFFEB
:1009F800412A030E4164A3D790C32FF0290E016E3C
:100A0800000E026E5BEC22F0306E3050D8B419D074
:100A1800FD0E3024016E026AFF0E0222000E046EE3
:100A2800090E036E42EC26F0070E0126000E022284
:100A3800000E0124D96E060E0220DA6E000EDF6E5B
:100A48008B9A0201E751D8A42DD13050D8B445D1A2
:100A5800030190A19FD0380E2918D8A406D030C021
:100A680001F0000E3CEC24F095D0360E2918D8A4DD
:100A780006D030C001F0080E3CEC24F08BD0320ECA
:100A88002918D8A406D030C001F00B0E3CEC24F095
:100A980081D0430E2918D8A406D030C001F0090E21
:100AA8003CEC24F077D0390E2918D8A406D030C0F1
:100AB80001F00C0E3CEC24F06DD0330E2918D8A4AC
:100AC80006D030C001F00D0E3CEC24F063D0310E9E
:100AD8002918D8A406D030C001F00E0E3CEC24F042
:100AE80059D0420E2918D8A406D030C001F00F0EF4
:100AF8003CEC24F04FD0350E2918D8A406D030C0CD
:100B080001F0100E3CEC24F045D0340E2918D8A47E
:100B180006D030C001F0110E3CEC24F03BD0370E6B
:100B28002918D8A406D030C001F0120E3CEC24F0ED
:100B380031D0410E2918D8A406D030C001F0130EC8
:100B48003CEC24F027D0440E2918D8A406D030C095
:100B580001F0140E3CEC24F01DD0450E2918D8A441
:100B680006D030C001F0150E3CEC24F013D0300E46
:100B78002918D8A406D030C001F0160E3CEC24F099
:100B880009D0460E2918D8A405D030C001F0170E98
:100B98003CEC24F0030190A505D030C001F0050E0F
:100BA8003CEC24F0030190A336D0FD0E3024016EF6
:100BB800026AFF0E0222000E046E090E036E42EC5A
:100BC80026F0080E0126000E0222000E0124D96E1E
:100BD800060E0220DA6EDF50D8A453D030C001F0E0
:100BE800030E3CEC24F0FD0E3024016E026AFF0E69
:100BF8000222000E046E090E036E42EC26F0080E67
:100C08000126000E0222000E0124D96E060E0220D3
:100C1800DA6E010E35D0FD0E3024016E026AFF0E29
:100C28000222000E046E090E036E42EC26F0080E36
:100C38000126000E0222000E0124D96E060E0220A3
:100C4800DA6EDE04D8A41DD030C001F0040E3CECEE
:100C580024F0FD0E3024016E026AFF0E0222000EFF
:100C6800046E090E036E42EC26F0080E0126000EF3
:100C78000222000E0124D96E060E0220DA6E000E42
:100C8800DF6E030190A905D030C001F0020E3CECE4
:100C980024F0030190AF21D030C001F00A0E3CECE3
:100CA80024F01BD0020E0201E719D8A40AD0305054
:100CB800D8A407D0290E046E000E056EE0EC18F0DB
:100CC8000BD0030E0201E719D8A407D03050D8B4CE
:100CD80004D0305090EC23F0306E000E416E060EBA
:100CE800416401D00DD04150010D8C0EF324D96E12
:100CF800030EF420DA6EDF50B6EC26F0412AEFD767
:100D0800000E416E719800F071889ED50201E9517C
:100D1800D8A424D0F2A204D0F292010E0201DE6F10
:100D2800F0A006D0F09081B803D0010E0201DF6F69
:100D3800F0A204D0F092010E0201D46FF2A00ED0FE
:100D480081A808D00201CD4BCE2B000E0201D06F36
:100D5800000ECF6F81CF2FF000F0F2900201E9056D
:100D6800D8A422D0F2A20ED0F2920201ED51D8A45A
:100D780009D0010E016E030E3CEC24F0010E0201B5
:100D8800ED6F8B96F0A010D0F0900201E651D8A438
:100D98000BD00201CD4BCE2B000E0201D06F000EFE
:100DA800CF6F020E0201E66FF2A4E0D2F29453B0C4
:100DB80004D0810ED66EFE0E03D0F30ED66EFC0E56
:100DC800D76E0201EA510201EB11D8B404D0020136
:100DD800EA07D8A0EB078BB281A810D00201CB4B51
:100DE800CC2B5A0E0201CB190201CC11D8A40BD07E
:100DF800000E016E050E3CEC24F005D0000E020139
:100E0800CC6F000ECB6F0201C14BC22BC1C209F0DF
:100E1800C2C20AF055EC26F009C00CF00AC00DF069
:100E28000BC00EF00D0E0F6E0B0E106E470E116EEE
:100E38005BEC21F0D8A03AD00201E02B000E0201B1
:100E4800C26F000EC16F0201DC2B170E0201DC65B8
:100E580024D0000E0201DC6F0201DB2B405002019E
:100E6800DB5DD8A008D0000E0201DB6FA3EC21F0F7
:100E7800010E0201D96F0201D251D8B402D0020189
:100E8800D2070201D151D8B402D00201D107020120
:100E9800D351D8B402D00201D307020E0201D919E6
:100EA800D8A412D0010E0201D96F0ED0C1C201F030
:100EB800C2C202F0020E046E580E036EEFEC24F06C
:100EC80001500210D8B452800201C7510201C81162
:100ED800D8B404D00201C707D8A0C8070201E85156
:100EE800D8B405D00201E82F02D08A888B8A020183
:100EF800ED51D8A481A016D00201ED2B050E0201F8
:100F0800ED6510D00201EC51D8A405D0010E016E98
:100F1800040E3CEC24F0000E0201EC6F000E0201FE
:100F2800ED6F8B860201E651D8B402D00201E607C4
:100F38000201E751D8A493D00201D751D8B47AD08E
:100F4800050E0201D719D8A40ED00201D62B050E22
:100F58000201D66102D08A9601D08A863E50D8A472
:100F6800B1D08B88B0D00201D705D8A40BD002012C
:100F7800D62B050E0201D66102D08B9801D08B8842
:100F88008A86A1D0020E0201D719D8A40ED08BA848
:100F980002D0010E01D0000EFF0A156E153A8B50D3
:100FA8001518EF0B15188B6E0CD0030E0201D7190C
:100FB800D8A40ED00201D62B050E0201D66103D0AB
:100FC8001BD08A8687D00A0E0201D66180D02AD02B
:100FD800040E0201D719D8A47DD00201D62B020134
:100FE800D651D8B409D00201D605D8B429D0020EFA
:100FF8000201D619D8A402D08B98E3D7030E0201B8
:10100800D619D8B41DD0040E0201D619D8B40AD006
:10101800050E0201D619D8B413D0060E0201D6194E
:10102800D8A402D08B882ED0070E0201D619D8A4D6
:101038004ED006D00201C7510201C811D8A402D06F
:101048008B88BFD70201D62B030E0201D66103D0CD
:101058008A968B9802D08A868B88310E35D0020109
:10106800C54BC62B580E0201C55D020E0201C659BA
:10107800D8A003D0000E0201E76F0201E705D8A44B
:1010880003D08B988A9626D0020E0201E719D8A4BD
:101098000BD00201D62B050E0201D66102D08B9827
:1010A80001D08B888A960FD0030E0201E719D8A4C5
:1010B80011D00201D62B050E0201D66102D08A9604
:1010C80001D08A868B98130E0201D66503D0000ED4
:1010D8000201D66F0201E951D8A4C1D00201DF5143
:1010E800D8B410D081A20BD00201DF2B090E020167
:1010F800DF6508D0010E016E000E3CEC24F0000EF6
:101108000201DF6F81A412D00201E12B090E020156
:10111800E16518D00A0E0201E119D8A405D0010E24
:10112800016E030E3CEC24F00A0E0AD0090E0201EF
:10113800E16505D0010E016E040E3CEC24F0000EB2
:101148000201E16F0201DE05D8A409D0000E0201F8
:10115800DE6F000E0201CA6F000EC96F13D00201C4
:10116800C94BCA2BA00E0201C95D0F0E0201CA5954
:10117800D8A008D0000E0201CA6F000EC96F010E78
:101188000201DD6F0201D405D8A406D0000E0201C9
:10119800D46F0201E22B4AD00201E251D8B44CD0FC
:1011A8000201C34BC42B2C0E0201C35D010E0201C8
:1011B800C459D8A054D00201E205D8A416D002011F
:1011C800E32B040E0201E3652ED00201D251D8A40C
:1011D8002AD0010E016E020E3CEC24F0000E020132
:1011E800E36F010E0201D26F1ED0030E0201E21955
:1011F800D8A416D00201E32B040E0201E36513D034
:101208000201D351D8A40FD0010E016E070E3CEC99
:1012180024F0000E0201E36F010E0201D36F03D028
:10122800000E0201E36F000E0201E26F000E0201E0
:10123800C46F000EC36F13D00201C34BC42B2C0E16
:101248000201C35D010E0201C459D8A008D0000EE6
:101258000201C46F000EC36F000E0201E36F0201AA
:10126800CD510201CE11D8B474D00201CF4BD02B8E
:101278000201E751D8A421D0050E0201CD190201BF
:10128800CE11D8A411D00201D05105E10B0E0201F4
:10129800CF5DD8A009D0010E0201E76F000E020150
:1012A800C66F000EC56F4BD00201D05148E1140E35
:1012B8000201CF5DD8A04DD042D00201CF4BD02B38
:1012C8000201D05105E1140E0201CF5DD8A041D032
:1012D8000201CD050201CE11D8A408D05282000E19
:1012E800016E180E3CEC24F0000E1FD0020E020115
:1012F800CD190201CE11D8A402D0020E16D0030EC9
:101308000201CD190201CE11D8A402D0030E0DD0CE
:10131800040E0201CD190201CE11D8A409D0000E85
:10132800016E050E3CEC24F0DFD70201E76F07D011
:10133800050E0201CD190201CE11D8B4D5D7000E81
:101348000201CE6F000ECD6F000E0201D06F000EAD
:10135800CF6F0201DA51D8B409D08A960201DA2F88
:1013680005D05390800ED56EF29AD59E27C0F5FF12
:1013780026C0F8FF25C0F7FF24C0F6FF23C0F4FFFE
:1013880022C0F3FF21C0DAFF20C0D9FF1FC0E2FF4F
:101398001EC0E1FF1DC0EAFF1CC0E9FF1BC0FBFF28
:1013A8001AC0FAFF5492110075EF1DF0290EF66E5F
:1013B800AC0EF76E20EEDCF00B0E0900F5CFDEFF69
:1013C800E806FBE23AC0EAF03B50D8A402D000019C
:1013D800EA07AB98DC0E0001616F000E0001626F36
:1013E800CBEC22F0EAC0ECF0640E0001EA6510D004
:1013F800ECC060F00001616B000E0001636F640EC9
:10140800626F16EC1DF000016051300FAEEC26F053
:10141800640E0001606F0001EC51CDEC24F0000176
:10142800EC6F0A0E0001EA6510D0ECC060F0000114
:10143800616B000E0001636F0A0E626F16EC1DF0FF
:1014480000016051300FAEEC26F0ECC060F00001F6
:10145800616B000E0001636F0A0E626F90EC1FF063
:1014680000016051300FAEEC26F00D0EAEEC26F008
:101478000A0EAEEC26F09D9AAB88640E0001E86F68
:10148800000E0001E96F710EB16E400EB36E000ED2
:10149800B26E9EAA42D0AECFEBF00001E951010D29
:1014A800780EF324D96E000EF420DA6EEBC0DFFF5D
:1014B8000001E92B1F0E0001E96503D01F0E000192
:1014C800E96F0A0E0001EB19D8A427D05E0E0001BF
:1014D8007819D8A41FD0530E00017919D8A41AD0AE
:1014E800490E00017A19D8A415D0530E00017B19B2
:1014F800D8A410D0570E00017C19D8A40BD03A0EEE
:1015080000017D19D8A406D0B190AB98010E000156
:10151800E86F05D0000E0001E96FA1A2BAD7A19229
:101528000001E82FB0D7A192B190AB98000E00014E
:10153800616F640E606FEAEC23F0000E0001EC6F3F
:101548000001EC51010D000EF324D96E040EF420B5
:10155800DA6EDF500001EB6F0001EB51AEEC26F0C4
:101568000001EC2B0001EA510001EC5DD8A0E8D79E
:101578009D9AAB88000E0001E96FC80E0001EC6F60
:101588009D9AAB88000E0001616FC80E606F79EC00
:101598001BF00001EB6F0001EB511200E10EF66E3B
:1015A800AD0EF76E20EE6FF0070E0900F5CFDEFFE7
:1015B800E806FBE2E90EF66EAD0EF76E20EE67F078
:1015C800070E0900F5CFDEFFE806FBE2000E00017A
:1015D800996FAB986F0E0001616F000E0001626F8A
:1015E800CBEC22F0710EB16E400EB36E000EB26EEF
:1015F800A192140E0001976F9D9AAB88000E00010E
:10160800996F0400710EB16E400EB36E000EB26E8B
:101618009EAAA9D0AECF98F000019951010D770E7E
:10162800F324D96E000EF420DA6E98C0DFFF0001B3
:10163800992B1F0E0001996503D01F0E0001996FA9
:101648000A0E00019819D8A48ED0450E000177190A
:10165800D8A418D04D0E00017819D8A413D0530E71
:1016680000017919D8A40ED0330E00017A19D8A434
:1016780009D0310E00017B19D8A404D0000E020154
:10168800D86F16D0500E00017719D8A413D04C0E7D
:1016980000017819D8A40ED0530E00017919D8A4E6
:1016A80009D0380E00017A19D8A404D0010EE7D762
:1016B8004B0E1200450E00017719D8A411D0480E20
:1016C80000017819D8A40CD0530E00017919D8A4B8
:1016D80007D0350E00017A19D8A402D0040ECFD74E
:1016E8004C0E00017719D8B405D0550E00017719B2
:1016F800D8A416D0450E00017819D8A411D0390EF7
:1017080000017919D8A40CD0310E00017A19D8A497
:1017180007D0300E00017B19D8A402D0020EAFD733
:101728004C0E00017719D8B405D0550E0001771971
:10173800D8A416D0450E00017819D8A411D0380EB7
:1017480000017919D8A40CD0360E00017A19D8A452
:1017580007D0360E00017B19D8A402D0030E8FD70C
:10176800000E0001996FA1A253D70400A1920001B5
:10177800972F48D7B1909D8A450E12006C0EF66ED1
:10178800AA0EF76E20EE6CF0110E0900F5CFDEFF01
:10179800E806FBE2AB986C0E0001616F000E0001D9
:1017A800626FCBEC22F09D9AAB88640E00017F6FCC
:1017B800000E0001806F000E0001816F000E396E6F
:1017C800000E00017E6F710EB16E400EB36E000EFA
:1017D800B26E9EAAB5D0AECF82F000018151010D44
:1017E800000EF324D96E010EF420DA6E82C0DFFFFA
:1017F8000001812BF90E0001816503D0F90E00016B
:10180800816F0A0E00018219D8A49AD0FE0E000139
:10181800676FFF0E0001686F000181510001696F59
:101828006A6B0001675100016927000168510001D6
:101838006A23000E00016925D96E010E00016A2194
:10184800DA6E0D0EDE18D8A47BD0450E0101001902
:10185800D8A418D0520E01010119D8A413D0520EE1
:1018680001010219D8A40ED04F0E01010319D8A402
:1018780009D0520E01010419D8A404D0B190AB9834
:10188800450E1200000180510001D8A427D0230E74
:1018980001010019D8A451D0530E01010119D8A48F
:1018A8004CD0520E01010219D8A447D0450E0101AF
:1018B8000319D8A442D0430E01010419D8A43DD07D
:1018C800560E01010519D8A438D03A0E010106199F
:1018D800D8A433D0010E0001806F2FD04E0E010125
:1018E8000019D8A424D0450E01010119D8A41FD08D
:1018F8004A0E01010219D8A41AD00D0E01010919C6
:10190800D8A402D04B0E14D0520E01010719D8A446
:101918000CD0460E01010819D8A407D0510E0101B8
:101928000919D8A402D0550E03D0520E01D0450E85
:101938000001826F000182511200000E0001816FC8
:10194800A1A247D70400A19200017F2F3CD7A19202
:10195800B190450E12000001636F5F0E000163191C
:10196800D8A420D0230E03010419D8B402D0450E00
:10197800120003C366F0300E00016619D8B405D012
:10198800310E00016619D8A4CED07E0E0001606F1A
:10199800000166510F0B0001616F000EBAEC25F0D3
:1019A8004B0E1200600E00016319D8A448D0030E34
:1019B8000001656F000E0001646F00016551010DA3
:1019C800000EF324D96E030EF420DA6EDF50000106
:1019D800666F0001652B230E00016619D8A415D087
:1019E800040E00016519D8B404D01E0E0001646508
:1019F80002D0450E12007F0E0001606F64C061F0D6
:101A0800000EBAEC25F04B0E12000001665118ECDE
:101A180026F0D8A00CD00F0E000166170001645103
:101A28000A0DF350000166250001646F02D0450ECF
:101A38001200050E00016565C0D7450E1200610E43
:101A480000016319D8A46FD0230E03010319D8A489
:101A580002D0450E1200230E03010419D8A412D097
:101A68002A0E03010319D8A40BD0B00E0001606F31
:101A78000C0E0001616F000EBAEC25F04B0E12003F
:101A8800450E1200030E0001656F00016551010D3E
:101A9800000EF324D96E030EF420DA6EDF50000135
:101AA800666F0001652B230E00016619D8B408D0B3
:101AB8000001665118EC26F0D8B002D0450E12008D
:101AC800230E00016619D8B404D0110E0001656513
:101AD800DCD7230E00016619D8B402D0450E1200D7
:101AE800030E0001656FB00E0001646F00016551BF
:101AF800010D000EF324D96E030EF420DA6EDF50C8
:101B08000001666F0001652B64C060F066C061F07B
:101B1800000EBAEC25F00001642B230E00016619B3
:101B2800D8B43ED7E3D7450E1200000E386E420EE9
:101B380005010019D8A4A7D0440E05010119D8A49D
:101B4800A2D0230E05010519D8A49DD0000E0001CE
:101B5800676F080E0001676501D03AD0010E0001D9
:101B680067250001606F0001616B000E6123000EA4
:101B78000001636F030E626F90EC1FF0000160516B
:101B880000016111D8B421D000016751010D450E43
:101B9800F324D96E000EF420DA6EDF500001686F6E
:101BA8000001685118EC26F0D8B002D0450E12009A
:101BB80000016751010D450EF324D96E000EF42083
:101BC800DA6E000168510F0BDF6E0001672BC1D779
:101BD800485049240001686F68C060F00001616BDB
:101BE800000E0001636F0A0E626F90EC1FF0000197
:101BF8006051300F0001686F00016851050102193A
:101C0800D8B402D0450E12004B504C240001686F26
:101C180068C060F00001616B000E0001636F0A0E7E
:101C2800626F90EC1FF000016051300F0001686F87
:101C38000001685105010319D8B402D0450E1200FD
:101C4800465045240001686F68C060F00001616B70
:101C5800000E0001636F0A0E626F90EC1FF0000126
:101C68006051300F0001686F0001685105010419C7
:101C7800D8B402D0450E1200010E386E060E0101CE
:101C8800FF6F4B0E1200000E0101FF6F000E0001E6
:101C9800676F00016751010D310EF324D96E000EF4
:101CA800F420DA6EDF500001686F0001672B010134
:101CB800FF51010D000EF324D96E050EF420DA6EE3
:101CC80000016851DE18D8A406D0230E0001681957
:101CD800D8B409D002D0450E12000101FF2B060E20
:101CE8000101FF65D6D70400230E00016819D8B496
:101CF80002D0450E12000101FF2B4B0E1200900E70
:101D0800F66EAA0EF76E20EE83F0100E0900F5CFDE
:101D1800DEFFE806FBE2AB98830E0001616F000E60
:101D28000001626FCBEC22F09D9AAB88640E000133
:101D3800956F000E0001966F000E0001976F000E60
:101D4800396E000E0001946F710EB16E400EB36EC5
:101D5800000EB26E9EAAACD0AECF98F0000197519B
:101D6800010D000EF324D96E010EF420DA6E98C02E
:101D7800DFFF0001972BF90E0001976503D0F90EDC
:101D88000001976F0A0E00019819D8A491D0FE0E91
:101D980000017E6FFF0E00017F6F00019751000167
:101DA800806F816B00017E510001802700017F5107
:101DB80000018123000E00018025D96E010E00016B
:101DC8008121DA6E0D0EDE18D8A472D0450E0101FD
:101DD8000019D8A418D0520E01010119D8A413D0A3
:101DE800520E01010219D8A40ED04F0E0101031999
:101DF800D8A409D0520E01010419D8A404D0B19076
:101E0800AB98450E1200000196510001D8A436D0B7
:101E18005E0E01010019D8A448D0530E0101011922
:101E2800D8A443D0490E01010219D8A43ED0530EBC
:101E380001010319D8A439D0520E01010419D8A4FC
:101E480034D03A0E01010519D8A42FD0200E010173
:101E58000619D8A42AD0310E01010719D8A425D013
:101E68002C0E01010819D8A420D0300E010109193F
:101E7800D8B41BD0010E0001966F17D0000E0001D8
:101E88006E6F010E00016F6F97C070F0ACEC6CF0D4
:101E98000001986F450E00019819D8A403D0520E7E
:101EA8000001986F000198511200000E0001976F11
:101EB800A1A250D7A1920001952F46D7A192B19027
:101EC800450E1200030E0001EE6F3EEC7CF000019F
:101ED800F06F4B0E0001F019D8A4B3D0000E27EC18
:101EE80074F00001F06F4B0E0001F019D8A4A7D0D0
:101EF8003FEC10F00001F06F320E0001EF6FC2EC02
:101F08000BF00001F06F000E0001616FC80E606FEA
:101F1800EAEC23F0010E0001EF5FD8B405D0450EBE
:101F28000001F019D8B4EBD7550E0001F019D8A468
:101F380060D0000E0001616FC80E606FEAEC23F0FC
:101F4800A9EC24F0000E0001616FC80E606FEAEC86
:101F580023F0010E27EC74F00001F06F430E00012E
:101F6800F019D8A46CD0520EAEEC26F0460EAEECAA
:101F780026F0510EAEEC26F0170E0001616F700EC0
:101F8800606FECEC11F00001F06F000E0001616F62
:101F9800C80E606FEAEC23F0000E0001616FC80EF6
:101FA800606FEAEC23F0000E0001616FC80E606FED
:101FB800EAEC23F02B0EAEEC26F02B0EAEEC26F05E
:101FC8002B0EAEEC26F0420E0001F019D8A437D043
:101FD800A9EC24F0000E0001616FC80E606FEAECF6
:101FE80023F085EC24F0000E0001ED6F4B0EEC6F32
:101FF80012004B0E0001F019D8A40CD0A9EC24F063
:10200800000E0001616FC80E606FEAEC23F085ECEA
:1020180024F0E9D7520E0001F019D8A410D0A9EC89
:1020280024F0000E0001616FC80E606FEAEC23F027
:1020380085EC24F0000E0001ED6F450ED8D7A9EC11
:1020480024F0000E0001616FC80E606FEAEC23F007
:1020580085EC24F0000E0001616FC80E606FEAEC99
:1020680023F004000001EE2F30D7000E0001ED6FC1
:10207800450EEC6F1200150EF66EAB0EF76E20EEE5
:1020880078F00F0E0900F5CFDEFFE806FBE2000E40
:1020980000018A6F4E0E0401006F450E0401016FA6
:1020A8004A0E0401026F300E0401036F300E040162
:1020B800046F300E0401056F300E0401066F070E21
:1020C80000018A6FAB98780E0001616F000E000165
:1020D800626FCBEC22F08AC08CF08CC060F00001FB
:1020E800616B000E0001636F640E626F16EC1DF0E9
:1020F80000016051300FAEEC26F0640E0001606FF5
:1021080000018C51CDEC24F000018C6F8CC060F084
:102118000001616B000E0001636F0A0E626F16EC1E
:102128001DF000016051300FAEEC26F08CC060F05D
:102138000001616B000E0001636F0A0E626F90EC84
:102148001FF000016051300FAEEC26F00D0EAEEC22
:1021580026F09D9AAB88C80E0001886F000E00011A
:102168008C6F000E0001896F9EBAAECF8BF0010E06
:1021780000018927D8B405D03E0E00018B19D8A4D8
:10218800F3D70400010E00018C27D8B405D03E0E09
:1021980000018B19D8A4E5D7010E00018827D8B40F
:1021A80005D03E0E00018B19D8A4D8D7AB98000EE5
:1021B8000001616F640E606FEAEC23F0000E00010D
:1021C8008C6F00018C51010D000EF324D96E040EA2
:1021D800F420DA6EDF5000018B6F00018B51AEECFA
:1021E80026F000018C2B00018A5100018C5DD8A0DB
:1021F800E8D70A0EAEEC26F004009D9AAB88000ED4
:102208000001896FC80E00018C6F9D9AAB88000E83
:102218000001616FC80E606F79EC1BF000018B6FD5
:1022280000018B5112007E0EF66EAA0EF76E20EE9C
:1022380083F0110E0900F5CFDEFFE806FBE2AB984C
:10224800830E0001616F000E0001626FCBEC22F07B
:102258009D9AAB88640E0001966F000E0001976F7F
:10226800000E0001986F000E396E000E0001956F88
:10227800710EB16E400EB36E000EB26E9EAA9DD066
:10228800AECF99F000019851010D000EF324D96EDC
:10229800010EF420DA6E99C0DFFF0001982BF90EC9
:1022A8000001986503D0F90E0001986F0A0E00012D
:1022B8009919D8A482D0FE0E00017E6FFF0E00018E
:1022C8007F6F000198510001806F816B00017E5182
:1022D8000001802700017F5100018123000E0001C9
:1022E8008025D96E010E00018121DA6E0D0EDE18EF
:1022F800D8A463D0450E01010019D8A418D0520EF5
:1023080001010119D8A413D0520E01010219D8A451
:102318000ED04F0E01010319D8A409D0520E0101A5
:102328000419D8A404D0B190AB98450E120000014E
:1023380097510001D8A427D0230E01010019D8A471
:1023480039D0530E01010119D8A434D0520E01011D
:102358000219D8A42FD0450E01010319D8A42AD0F8
:10236800430E01010419D8A425D0560E0101051900
:10237800D8A420D03A0E01010619D8A41BD0010E0A
:102388000001976F17D0000E00016E6F010E00015B
:102398006F6F98C070F0ACEC6CF00001996F450E4F
:1023A80000019919D8A403D0520E0001996F0001B9
:1023B80099511200000E0001986FA1A25FD7040086
:1023C800A1920001962F54D7A192B190450E120008
:1023D800AB989D9AAB88000E0001796F0400710ECE
:1023E800B16E400EB36E000EB26EA1929EAAADD031
:1023F800AECF7AF000017951010D620EF324D96E47
:10240800000EF420DA6E7AC0DFFF77C076F078C06D
:1024180077F07AC078F00001792B130E0001796506
:1024280003D0130E0001796F0A0E00017A19D8A49F
:1024380079D0430E00016219D8A420D04F0E0001B4
:102448006319D8A41BD04E0E00016419D8A416D065
:102458004E0E00016519D8A411D0450E0001661969
:10246800D8A40CD0430E00016719D8A407D0540E85
:1024780000016819D8A402D0430E24D04E0E0001E2
:102488006219D8A422D04F0E00016319D8A41DD018
:10249800200E00016419D8A418D0430E0001651954
:1024A800D8A413D0410E00016619D8A40ED0520E3C
:1024B80000016719D8A409D0520E00016819D8A4E0
:1024C80004D01CD000017A6F1BD0450E00016219A0
:1024D800D8A416D0520E00016319D8A411D0520EF8
:1024E80000016419D8A40CD04F0E00016519D8A4B6
:1024F80007D0520E00016619D8A402D0450EE2D7C3
:10250800430E00017A19D8B405D0450E00017A1996
:10251800D8A405D09D8AAB9800017A511200000E0C
:102528000001796F420E00017619D8A40ED0410E31
:1025380000017719D8A409D0440E00017819D8A44D
:1025480004D09D8AAB98420E1200ABA202D0AB9881
:10255800AB88A1A24BD70400A19200016007D8A0C4
:1025680061070001605100016111D8A438D7B1900A
:102578009D8A4E0E1200C30EF66EAA0EF76E22EE5C
:10258800A0F0100E0900F5CFDEFFE806FBE2AB98DD
:10259800A00E0001616F020E0001626FCBEC22F009
:1025A800710EB16EA00EB36E000EB26EA192020E45
:1025B8000201B26F580EB16F000E0201B46F000E27
:1025C8000201B66F000E0201B76F000E0201B56F6F
:1025D8009D9AAB88710EB16E400EB36E000EB26E4E
:1025E8009EAA86D0AECFB3F20201B451010D000EFF
:1025F800F324D96E020EF420DA6EB3C2DFFF0201B3
:10260800B42B1F0E0201B419D8A402D00201B407DA
:102618000A0E0201B319D8A46BD02B0E02010019BF
:10262800D8A425D04D0E02010219D8A420D0200E1E
:1026380002010619D8A41BD00201B6510201D8A480
:1026480016D00201B7510201D8A411D00201B55128
:102658000201D8A40CD007C2B6F208C2B7F209C268
:10266800B5F2000E0201B26F640EB16F39D04F0E91
:1026780002010019D8A434D04B0E02010119D8A4C4
:102688002FD00201B6510201D8A405D00201B751DA
:102698000201D8B41200000E0001616F640E606F71
:1026A800EAEC23F0B7C2E1F0B5C2E2F00201B6519C
:1026B80073EC72F00201B36F000E0001616F640EDB
:1026C800606FEAEC23F0B7C267F0B5C268F00201A8
:1026D800B6518EEC1EF002EC26F010EC25F012003C
:1026E800000E0201B26F640EB16F000E0201B46FEA
:1026F800A1A276D70400A1920201B107D8A0B2071F
:102708000201B1510201B211D8A464D7B19002EC10
:1027180026F09D8A1200A30EF66EAB0EF76E20EE21
:10272800D4F00D0E0900F5CFDEFFE806FBE2CD0E72
:10273800F66EA90EF76E20EE94F01A0E0900F5CF8A
:10274800DEFFE806FBE2E50EF66EAA0EF76E20EE57
:10275800C4F00F0E0900F5CFDEFFE806FBE2950E88
:10276800F66EA90EF76E20EE78F01B0E0900F5CF75
:10277800DEFFE806FBE2180EF66EAA0EF76E20EEF4
:10278800AFF0140E0900F5CFDEFFE806FBE2AB98C8
:10279800000E0001616F640E606FEAEC23F0D40E46
:1027A8000001616F000E0001626FCBEC22F0000E99
:1027B8000001616FC80E606F79EC1BF0AB98000EDA
:1027C8000001616F640E606FEAEC23F0940E000163
:1027D800616F000E0001626FCBEC22F0000E000169
:1027E800616FC80E606F79EC1BF0000E0001616F1D
:1027F800640E606FEAEC23F0C40E0001616F000EF6
:102808000001626FCBEC22F0100E0001E26FE2C013
:1028180060F0000E67EC26F00001E36F230E000164
:10282800E319D8B404D00001E351AEEC26F000015E
:10283800E22B230E0001E319D8A4E9D70D0EAEEC64
:1028480026F00A0EAEEC26F0000E0001616FC80EED
:10285800606F79EC1BF0AB98000E0001616F640E9D
:10286800606FEAEC23F0780E0001616F000E000142
:10287800626FCBEC22F0AB98000E0001616F640E22
:10288800606FEAEC23F0AF0E0001616F000E0001EB
:10289800626FCBEC22F0000E0001616F640E606F76
:1028A800EAEC23F01200140E0001706F000E000114
:1028B800756F3B04D8A433D0BEEC23F06CC06EF027
:1028C8006DC06FF0BEEC23F000016DC06CF000012C
:1028D8006D6B00016CBF6D6900016C5100016E19D0
:1028E8003F180001746F00017551010D000EF324AB
:1028F800D96E040EF420DA6E74C0DFFF0001752B68
:1029080074C071F074C06EF00F0E00016E170001F4
:1029180074390F0B00016E250F0B0001746F000155
:102928007051010D640EF324D96E070EF420DA6E8F
:10293800DF500001766F0001702B3B04D8A450D003
:102948000D0E00017619D8B461D000017451010D43
:10295800550EF324F66EAB0EF420F76E0800F5CF93
:1029680072F0000172510001761B00017639F00BFC
:102978000001736F0001763B0F0E7617000173514B
:102988000001762700017645E846030B0001736FC6
:102998000001D8907637D89076370001735100013E
:1029A8007627000172510001761B00017551010D57
:1029B800000EF324D96E040EF420DA6E76C0DFFF21
:1029C8000001752B0001742B0F0E0001746503D0F4
:1029D800000E0001746F000176510001711B12D0C6
:1029E80000017551010D000EF324D96E040EF42078
:1029F800DA6E76C0DFFF0001752B0D0E0001761927
:102A0800D8B404D0C70E0001756589D704003B040B
:102A1800D8A40DD000017551010D000EF324D96E14
:102A2800040EF420DA6E71C0DFFF0001752B75C04B
:102A38003AF01200450EF66EAB0EF76E20EE78F007
:102A48000F0E0900F5CFDEFFE806FBE23AC08AF078
:102A58003B50D8A402D000018A07AB98780E000139
:102A6800616F000E0001626FCBEC22F08AC08CF01F
:102A78008CC060F00001616B000E0001636F640E92
:102A8800626F16EC1DF000016051300FAEEC26F0BD
:102A9800640E0001606F00018C51CDEC24F0000140
:102AA8008C6F8CC060F00001616B000E0001636FD9
:102AB8000A0E626F16EC1DF000016051300FAEEC8B
:102AC80026F08CC060F00001616B000E0001636F9E
:102AD8000A0E626F90EC1FF000016051300FAEECEF
:102AE80026F00D0EAEEC26F09D9AAB88C80E0001BC
:102AF800886F000E00018C6F000E0001896F9EBA6E
:102B0800AECF8BF0010E00018927D8B405D03E0E58
:102B180000018B19D8A4F3D70400010E00018C27FB
:102B2800D8B405D03E0E00018B19D8A4E5D7010E04
:102B380000018827D8B405D03E0E00018B19D8A40F
:102B4800D8D7AB98000E0001616F640E606FEAEC95
:102B580023F0000E00018C6F00018C51010D000E56
:102B6800F324D96E040EF420DA6EDF5000018B6F67
:102B780000018B51AEEC26F000018C2B00018A512C
:102B880000018C5DD8A0E8D704009D9AAB88000EA0
:102B98000001896FC80E00018C6F9D9AAB88000EEA
:102BA8000001616FC80E606F79EC1BF000018B6F3C
:102BB80000018B511200450E0001D16F0301005135
:102BC8000F0B0001D26F030101510F0B0001D06FF1
:102BD8000001D2510A0DF3500001D0250001D26F37
:102BE80046D00001D25154EC18F03CD0C8EC20F08B
:102BF80039D00001D25195EC22F034D012EC21F0FA
:102C080031D0D3EC1DF02ED00001D25177EC1AF060
:102C180029D0E6EC1BF026D03DEC1FF023D00001B4
:102C2800D2514EEC25F01ED00001D2514DEC7EF071
:102C380019D03850D8A402D0450E12000001D25144
:102C4800AFEC0CF00FD030EC25F00CD0280E0001C2
:102C5800D2650BD0390E0001D26107D00001D251E4
:102C68002BEC7BF00001D16F56D0450E120000010D
:102C7800D251010AD8B4B5D7030AD8B4B2D7010AD9
:102C8800D8B4AFD7070AD8B4ACD7010AD8B4AED7EE
:102C9800030AD8B4AED7010AD8B4B0D70F0AD8B44B
:102CA800B0D7010AD8B4B0D7030AD8B4B2D7010A4A
:102CB800D8B4B2D7070AD8B4B2D7020AD8B499D7C9
:102CC800010AD8B4A1D71F0AD8B49ED70F0AD8B41E
:102CD800ABD73F0AD8B4A8D7010AD8B4A5D7030AF6
:102CE800D8B4A2D7010AD8B47CD7070AD8B479D700
:102CF800010AD8B499D7750AD8B40DD00F0AD8B438
:102D080098D73F0AD8B495D7010AD8B492D7030AFE
:102D1800D8B499D79BD70001D1511200000E0001F9
:102D2800666F00016651DC0D640EF324D96E070E40
:102D3800F420DA6EDF50D8A48DD000016651DC0D86
:102D4800640EF324D96E070EF420DA6E500EDF6E8F
:102D580000016651DC0D010EF326000EF422640E0C
:102D6800F324D96E070EF420DA6E010EDF6E7B0EA7
:102D78000001606F000E67EC26F00001646F00012F
:102D88006439F00B0001656F200E0001606F010EC1
:102D980067EC26F00C0AD8A402D0040E01D0020E6B
:102DA8000001652700016651DC0D020EF326000EB6
:102DB800F422640EF324D96E070EF420DA6E65C08F
:102DC800DFFF590E0001606F000E67EC26F000016E
:102DD800656F00016651DC0D030EF326000EF42228
:102DE800640EF324D96E070EF420DA6E65C0DFFF97
:102DF80000016651DC0D040EF326000EF422640E69
:102E0800F324D96E070EF420DA6E65C0DFFF0001E7
:102E18006651DC0D050EF326000EF422640EF32431
:102E2800D96E070EF420DA6E030EDF6E00016651CC
:102E3800DC0D060EF326000EF422640EF324D96E80
:102E4800070EF420DA6E030EDF6EA0EC25F0000109
:102E5800665112000001662B050E0001666561D7F8
:102E680004000001665112001C0EF66EAC0EF76EDF
:102E780020EE87F00C0E0900F5CFDEFFE806FBE236
:102E8800E80EF66EA90EF76E20EE94F0190E090002
:102E9800F5CFDEFFE806FBE2940EF66EAB0EF76E9A
:102EA80020EE78F00E0E0900F5CFDEFFE806FBE213
:102EB800AB98870E0001616F000E0001626FCBECCA
:102EC80022F0000E0001616F280E606F79EC1BF094
:102ED800940E0001616F000E0001626FCBEC22F0CE
:102EE800000E0001616F280E606F79EC1BF0940EE4
:102EF8000001616F000E0001626FCBEC22F0000E42
:102F08000001616F280E606F79EC1BF0940E0001D0
:102F1800616F000E0001626FCBEC22F0000E000121
:102F2800616F280E606F79EC1BF0940E0001616FE1
:102F3800000E0001626FCBEC22F0000E0001616F01
:102F4800280E606F79EC1BF0940E0001616F000E83
:102F58000001626FCBEC22F0000E0001616F280EB9
:102F6800606F79EC1BF0780E0001616F000E0001B4
:102F7800626FCBEC22F0000E0001616F280E606FCB
:102F880079EC1BF01200190EF66EA90EF76E20EE02
:102F980078F0210E0900F5CFDEFFE806FBE2F50E1A
:102FA800F66EAB0EF76E20EEC8F00C0E0900F5CFEA
:102FB800DEFFE806FBE2050EF66EAB0EF76E20EEBE
:102FC800B8F00F0E0900F5CFDEFFE806FBE25A0E57
:102FD800F66EA90EF76E20EE9AF01D0E0900F5CFD9
:102FE800DEFFE806FBE23A0E0001616FAE0E00015B
:102FF800626FCBEC22F0000E0001616F140E606F5F
:1030080079EC1BF0780E0001616F000E0001626F11
:10301800CBEC22F0000E0001616F280E606F79EC96
:103028001BF00201D851D8B404D00201D805D8A4A5
:1030380009D0C80E0001616F000E0001626FCBEC71
:1030480022F008D0B80E0001616F000E0001626F17
:10305800CBEC22F0000E0001616F280E606F79EC56
:103068001BF0190E0001616FAE0E0001626FCBEC10
:1030780022F0000E0001616F280E606F79EC1BF0E2
:103088009A0E0001616F000E0001626FCBEC22F016
:10309800000E0001616F280E606F79EC1BF01200C2
:1030A8000001686F000E0001656F240E00016819A9
:1030B800D8A405D0010E0001656FD00E11D0230EE3
:1030C80000016819D8A402D0100E0AD068C063F0B5
:1030D8000001633BF00E63170001D8906335100FB1
:1030E8000001666F050E3C18D8A414D02A0E0301FF
:1030F8000319D8A40FD0230E00016819D8B40AD038
:1031080066C060F0230E0001616F000EBAEC25F076
:103118004B0E1200030E0001696F000E0001646F70
:1031280000016951010D000EF324D96E030EF4203D
:10313800DA6EDF500001676F0001692B230E000172
:103148006719D8B404D0230E00016965E9D7230EA6
:103158000001696502D0450E1200030E0001696F77
:1031680000016951010D000EF324D96E030EF420FD
:10317800DA6EDF500001676F0001692B200E000135
:103188006819D8B408D02A0E00016719D8A403D04A
:103198002E0E0001676F66C060F067C061F0000125
:1031A8006551BAEC25F00001662B230E0001671962
:1031B800D8A4D6D74B0E1200F29E000E0B6E0F0E3F
:1031C8000B6401D07ED00B50090D000EF324D96E8C
:1031D800060EF420DA6EDF50096E0950D8A46FD0BD
:1031E8000B50080DF3CF08F0000E0A6E050E0A64A6
:1031F80001D028D00A50010DF3500424D96EF450A0
:103208000520DA6EDF50096E0B50090D000E066EB0
:10321800060E076EF3500626F45007220A50010DD9
:10322800F3500624D96EF4500720DA6E09C0DFFF88
:1032380008500A24016E09C002F0010ED3EC25F0F3
:103248000A2AD4D70B50090D060EF326000EF422D5
:10325800000EF324D96E060EF420DA6E000EDF6E2F
:103268000850060F016E000E026E010ED3EC25F019
:103278000B50090D070EF326000EF422000EF3245E
:10328800D96E060EF420DA6E000EDF6E0850070FB6
:10329800016E000E026E010ED3EC25F00B50090DE5
:1032A800080EF326000EF422000EF324D96E060E43
:1032B800F420DA6E000EDF6EF28E4B0E12000B2A2F
:1032C8007ED70400F28E450E1200000E00016D6FCD
:1032D800040E00016D6501D01200000E00016C6F34
:1032E800010E00016D250001636F0001646B000E83
:1032F8006423000E0001666FDC0E656F6BEC25F031
:10330800640E0001696F070E00016A6F00016351C6
:10331800000169270001645100016A2300016C5112
:10332800010DF35000016925D96EF45000016A219E
:10333800DA6EDF5000016B6F010E00016D25000190
:10334800636F0001646B000E6423000E0001666F5A
:10335800DC0E656F6BEC25F0640E0001696F070EDB
:1033680000016A6F0001635100016927000164517F
:1033780000016A2300016C51010DF3500001692519
:10338800D96EF45000016A21DA6E000EDF6E00017A
:103398006D51DC0D640E0001696F070E00016A6F44
:1033A800F35000016927F45000016A2300016C51B1
:1033B800010DF35000016925D96EF45000016A210E
:1033C800DA6E6BC0DFFF00016C2BDB0E00016C6551
:1033D80087D7040000016D2B7BD7000163510001E2
:1033E800D8B408D0000160510001611100016211D8
:1033F800D8A411D0000E0001606F000E0001616FAB
:10340800000E0001626F12000001632B0001D890CA
:10341800623361336033000E000160150001656F8F
:10342800000E000161150001666FFE0E00016215B5
:103438000001676F00016551000166110001671105
:10344800D8B411D0E1D70001632B010E0001602729
:10345800000E00016123000E000162230001D890D4
:10346800623361336033000E000160150001656F3F
:10347800000E000161150001666FFF0E0001621564
:103488000001676F000165510001661100016711B5
:10349800D8B408D0D8D7000163070001D8906037A6
:1034A80061376237000161BF04D0020E0001636119
:1034B800F2D7000163B102D00001619F0001D890EA
:1034C800633300016351000162130001645100017C
:1034D800D8B402D00001628F60C060F061C061F0B2
:1034E80062C062F012000001696F030E00016A6F8A
:1034F800000E00016D6F000E6C6F00016A51010D26
:10350800000EF324D96E030EF420DA6EDF500001AA
:103518006B6F00016A2B230E00016B19D8A43DD0F4
:1035280000016A510001D8B408D000016D5105E1CD
:10353800650E00016C5DD8A002D0450E1200090E80
:1035480000016919D8A409D0B80E0001606F6CC0D9
:1035580061F0000EBAEC25F01ED00F0E00016919BB
:10356800D8A409D0BC0E0001606F6CC061F0000ED9
:10357800BAEC25F010D0100E00016919D8A409D0B2
:10358800BD0E0001606F6CC061F0000EBAEC25F052
:1035980002D0450E12004B0E120000016B5118ECC0
:1035A80026F0D8A01BD00F0E00016B176CC063F07B
:1035B8006DC064F0000E0001666F0A0E656F6BEC5B
:1035C80025F000016B510001632500016C6F0001BB
:1035D800000E0001642100016D6F02D0450E12003B
:1035E800060E00016A6589D70400450E1200B00E68
:1035F800F66EAD0EF76E20EE68F0090E0900F5CFF5
:10360800DEFFE806FBE2AB98680E0001616F000E72
:103618000001626FCBEC22F0140E0001726F000EF5
:103628000001746FAB880400710EB16E400EB36E6A
:10363800000EB26E9EAA4ED0AECF75F00001745146
:10364800010D000EF324D96E010EF420DA6E75C058
:10365800DFFF0001742B1E0E0001746503D01E0EDF
:103668000001746F0A0E00017519D8A433D02B0E0F
:1036780001010019D8A42BD0530E01010219D8A4B6
:1036880026D03A0E01010419D8A421D006C175F03C
:1036980007C173F02C0E00017319D8A404D00001DF
:1036A80075510F0B0CD073C067F00F0E0001671730
:1036B800000175510F0B0A0DF35000016725000139
:1036C800756F75C042F0B190000175511200000E7F
:1036D8000001746FA1A2AED70400A1920001722F5D
:1036E800A3D7A192B190000E1200AB989D9AAB8817
:1036F800000E0001766F0400710EB16E400EB36EBD
:10370800000EB26EA1929EAA4BD0AECF77F0000108
:103718007651010D620EF324D96E000EF420DA6E94
:1037280077C0DFFF0001762B130E0001766503D00A
:10373800130E0001766F0A0E00017719D8A430D055
:103748004F0E00016219D8A407D04B0E000163196F
:10375800D8A402D04B0E10D0450E00016219D8A48F
:103768000DD0520E00016319D8A408D0520E0001E2
:103778006419D8A403D0450E0001776F4B0E0001E1
:103788007719D8B405D0450E00017719D8A405D00B
:103798009D8AAB98000177511200000E0001766FE8
:1037A800A1A2B1D70400A19200016007D8A06107C7
:1037B8000001605100016111D8A49ED7B1909D8A83
:1037C8004E0E1200030E0001666F000E0001656FB9
:1037D80000016651010D000EF324D96E030EF4208A
:1037E800DA6EDF500001646F0001662B230E0001C2
:1037F8006419D8A444D0040E00016619D8A402D0D4
:10380800450E1200040E0001665FCA0E0001656FC6
:10381800040E0001666113D0000166510008040F10
:103828000001636F65C060F0300E0001616F000E2B
:10383800BAEC25F00001652B0001632FF3D7030EC6
:103848000001666F00016651010D000EF324D96E68
:10385800030EF420DA6EDF500001646F0001662B5E
:1038680065C060F064C061F0000EBAEC25F000019C
:10387800652BCF0E00016565E5D74B0E12000001E0
:10388800645118EC26F0D8B002D0450E1200090E8B
:10389800000166659DD70400450E120000016DAF5A
:1038A8001DD06BC071F06CC072F06DC073F0000178
:1038B800711F721F731F712B000E72237323000E6A
:1038C8000001712500016B6F000E000172210001DB
:1038D8006C6F800E0001732100016D6F000170AFE5
:1038E8001DD06EC071F06FC072F070C073F000012F
:1038F800711F721F731F712B000E72237323000E2A
:103908000001712500016E6F000E00017221000197
:103918006F6F800E000173210001706F000E0001AF
:103928006B1B000E00016C1B800E00016D1B000E4E
:1039380000016E1B000E00016F1B800E0001701B42
:1039480000016E5100016B5D00016F5100016C595F
:103958000001705100016D59D8B002D0D890120002
:10396800D8801200A10EF66EAA0EF76E20EE78F03F
:10397800100E0900F5CFDEFFE806FBE2B20EF66E88
:10398800AA0EF76E20EE89F0100E0900F5CFDEFFC3
:10399800E806FBE2020EF66EAC0EF76E20EE9AF029
:1039A8000C0E0900F5CFDEFFE806FBE2890E0001E8
:1039B800616FAE0E0001626FCBEC22F0000E0001C9
:1039C800616F140E606F79EC1BF0020E0201D819BA
:1039D800D8A409D0780E0001616F000E0001626F53
:1039E800CBEC22F008D0890E0001616F000E0001B7
:1039F800626FCBEC22F0000E0001616F280E606F41
:103A080079EC1BF09A0E0001616F000E0001626FE5
:103A1800CBEC22F0000E0001616F280E606F79EC8C
:103A28001BF01200000E0001656F000163AF08D0A3
:103A38000001626D631FD8B0632B010E0001656F32
:103A4800000161AF08D00001606D611FD8B0612B23
:103A5800010E0001651B000E0001676F000E666F06
:103A68000001625100016311D8B42CD0010E00018D
:103A7800646F06D00001D890623763370001642B69
:103A8800000163AFF7D70001D890663767370001A8
:103A980062510001605D0001635100016159D8A0C5
:103AA8000AD0000162510001605F0001635100010A
:103AB800615B000166810001D890633362330001C5
:103AC800642FE1D7000165510001D8B405D0000189
:103AD800666D671FD8B0672B66C060F067C061F07D
:103AE8001200FC0EF66EFF0EF76E000EF86E02EE78
:103AF800EAF010EE04F00900F5CFEEFFE550E150D2
:103B0800FAE1F80EF66EFF0EF76E000EF86E00EE94
:103B18004EF010EE04F00900F5CFEEFFE550E1504D
:103B2800FAE107EE64F015EE28F0EE6AE550E15090
:103B3800FCE1E250FAE107EE00F0640EEE6AE806F6
:103B4800FDE106EE00F0FC0EEE6AE806FDE105EE8A
:103B580000F0A00EEE6AE806FDE104EE00F0FA0EB1
:103B6800EE6AE806FDE103EE00F0A00EEE6AE80654
:103B7800FDE102EEBFF02B0EEE6AE806FDE1010161
:103B8800FF6B526A00EE31F01D0EEE6AE806FDE1A9
:103B980054905492000EF86E0001BDEF5FF0030ED2
:103BA80000016B6F000E00016A6F000E696F000163
:103BB8006B51010D000EF324D96E030EF420DA6E5A
:103BC800DF5000016C6F00016B2B230E00016C1994
:103BD800D8A419D0040E00016B19D8B408D000017C
:103BE8006A5105E1B50E0001695DD8A002D0450E05
:103BF8001200C90E0001606F69C061F0000EBAECD6
:103C080025F04B0E120000016C5118EC26F0D8A0DC
:103C18001BD00F0E00016C1769C063F06AC064F016
:103C2800000E0001666F0A0E656F6BEC25F000014F
:103C38006C51000163250001696F0001000E00014D
:103C4800642100016A6F02D0450E1200060E0001C1
:103C58006B65ADD70400450E1200000E0001666FBB
:103C68001B0E0001666501D053D000016651080D96
:103C7800F3CF65F0000E0001676F070E000167655E
:103C880001D027D000016651090D000E0001636FB5
:103C9800060E0001646FF35000016327F450000121
:103CA800642300016751010DF35000016325D96EAB
:103CB800F45000016421DA6E0001655100016725A6
:103CC8000001606F010E67EC26F0DF6E0001672BC4
:103CD800D4D700016651090D000E0001636F060E6E
:103CE8000001646FF35000016327F450000164235E
:103CF80000016751010DF35000016325D96EF4509E
:103D080000016421DA6E000EDF6E0001662BA8D771
:103D1800040012000001736FC40EF66EAD0EF76E4C
:103D280020EE69F0090E0900F5CFDEFFE806FBE298
:103D3800AB98690E0001616F000E0001626FCBEC59
:103D480022F000017351AEEC26F02C0E0001671929
:103D5800D8B40DD000016751AEEC26F02C0E00014E
:103D68006819D8B404D000016851AEEC26F00D0EE5
:103D7800AEEC26F00A0EAEEC26F0640E0001746F6D
:103D8800AB88710EB16E400EB36E000EB26E9EAA75
:103D98000FD0AECF75F0450E00017519D8B405D017
:103DA8004B0E00017519D8A403D0A192A09212005D
:103DB800A1A2EDD70400A1920001742FE2D7A1922D
:103DC800B19012000450D8B405D00150021003106D
:103DD800D8A40CD0000E016E000E026E000E036E09
:103DE8001200042AD890033202320132000E011464
:103DF800066E000E0214076EFE0E0314086E0650BF
:103E080007100810D8B40CD0ECD7042A010E0126EC
:103E1800000E0222000E0322D89003320232013231
:103E2800000E0114066E000E0214076EFF0E031436
:103E3800086E065007100810D8B406D0E6D7040656
:103E4800D89001360236033602BE03D0020E046053
:103E5800F6D704A0029ED8900432045003120550ED
:103E6800D8A4038E01C001F002C002F003C003F021
:103E78001200030E0001656F000E0001636F000160
:103E88006551010D000EF324D96E030EF420DA6E8D
:103E9800DF500001646F0001652B230E00016419D7
:103EA800D8A42BD0040E00016519D8A402D0450E61
:103EB8001200D00E0001636F030E0001656F000150
:103EC8006551010D000EF324D96E030EF420DA6E4D
:103ED800DF500001646F0001652B63C060F064C0AF
:103EE80061F0000EBAEC25F00001632B230E0001EF
:103EF8006419D8A4E4D74B0E12000001645118ECE1
:103F080026F0D8B002D0450E1200070E00016565F4
:103F1800B6D70400450E1200000E0001656F0001BF
:103F280061AF08D00001606D611FD8B0612B010E30
:103F38000001656F000163AF05D00001626D631F6A
:103F4800D8B0632B0001625100016311D8B426D0A8
:103F5800010E0001646F06D00001D8906237633704
:103F68000001642B000163AFF7D700016251000123
:103F7800605D0001635100016159D8A008D00001BB
:103F880062510001605F000163510001615B000143
:103F9800D890633362330001642FE7D7000165517D
:103FA8000001D8B405D00001606D611FD8B0612B45
:103FB80060C060F061C061F01200000E0001636F24
:103FC8000F0E0001636501D0120000016351090D55
:103FD800000EF324D96E060EF420DA6EDF50D8B442
:103FE80038D000016351090D070EF326000EF422A4
:103FF800000EF324D96E060EF420DA6E540EDF603C
:1040080028D000016351090D070EF326000EF42293
:10401800000EF324D96E060EF420DA6EDF2A530E52
:10402800DF6417D000016351030F0001606F0A0EAF
:1040380016EC24F000016351090D070EF326000E5B
:10404800F422000EF324D96E060EF420DA6E530E15
:10405800DF6E04000001632BB3D7F10EF66EAD0ED0
:10406800F76E20EE87F0050E0900F5CFDEFFE806B3
:10407800FBE2000E00018E6FAB98870E0001616FA6
:10408800000E0001626FCBEC22F0710EB16E400E93
:10409800B36E000EB26EA192140E00018D6F9D9A40
:1040A800AB880400710EB16E400EB36E000EB26E96
:1040B8009EAA14D0AECF8FF000018E51010D670E6D
:1040C800F324D96E000EF420DA6E8FC0DFFF4B0E9A
:1040D80000018F19D8A402D04B0E1200A1A2E8D774
:1040E8000400A19200018D2FDDD7B1909D8A450E65
:1040F8001200000E0001636F0F0E0001636501D00E
:1041080041D000016351090D000EF324D96E060E4B
:10411800F420DA6EDF50D8B432D000016351090DB3
:10412800060EF326000EF422000EF324D96E060EB6
:10413800F420DA6E420EDE18D8A408D000016351CC
:10414800030F0001606F020E16EC24F000016351AA
:10415800090D070EF326000EF422000EF324D96E83
:10416800060EF420DA6E530EDE18D8A408D000012B
:104178006351030F0001606F0A0E16EC24F0000172
:10418800632BBAD704001200030E0001656F00010B
:104198006551010D000EF324D96E030EF420DA6E7A
:1041A800DF500001646F0001652B230E00016419C4
:1041B800D8B404D0080E00016565E9D7230E0001C4
:1041C8006419D8A404D0070E0001656102D0450E19
:1041D8001200030E0001656FC00E0001636F00013D
:1041E8006551010D000EF324D96E030EF420DA6E2A
:1041F800DF500001646F0001652B63C060F064C08C
:1042080061F0000EBAEC25F00001632B230E0001CB
:104218006419D8A4E4D704004B0E1200030E000161
:10422800636F000E0001656F00016351010D000E00
:10423800F324D96E030EF420DA6EDF500001646FA8
:104248000001632B230E00016419D8A415D0040EB5
:1042580000016319D8B404D01E0E0001656502D0B0
:10426800450E1200C80E0001606F65C061F0000EB7
:10427800BAEC25F04B0E12000001645118EC26F040
:10428800D8A00CD00F0E00016417000165510A0D6B
:10429800F350000164250001656F02D0450E12003D
:1042A800050E00016365C0D70400450E12000EAE6E
:1042B80016D00CC012F00DC013F00EC014F0121E70
:1042C800131E141E122A000E13221422000E12248A
:1042D8000C6E000E13200D6E800E14200E6E11AEA3
:1042E80016D00FC012F010C013F011C014F0121E37
:1042F800131E141E122A000E13221422000E12245A
:104308000F6E000E1320106E800E1420116E000E1A
:104318000C1A000E0D1A800E0E1A000E0F1A000E3F
:10432800101A800E111A0F500C5C10500D581150B5
:104338000E58D8B002D0D8901200D8801200000EC3
:10434800046E0F0E046401D039D00450090D000E1C
:10435800F324D96E060EF420DA6EDF50D8B42CD0D0
:104368000450090D060EF326000EF422000EF32465
:10437800D96E060EF420DA6E420EDE18D8A406D0E6
:104388000450030F016E020E3CEC24F00450090D9A
:10439800070EF326000EF422000EF324D96E060E43
:1043A800F420DA6E530EDE18D8A406D00450030F9A
:1043B800016E0A0E3CEC24F0042AC3D70400120054
:1043C800000E0001656F000E646F0001625100016C
:1043D8006311D8B42CD0010E0001666F06D000011D
:1043E800D890623763370001662B000163AFF7D7B7
:1043F8000001D89064376537000162510001605DA3
:104408000001635100016159D8A00AD0000162512E
:104418000001605F000163510001615B000164817C
:104428000001D890633362330001662FE1D764C07E
:1044380060F065C061F01200000E0001686F000EA8
:10444800696F000E6A6F000E6B6F000160A110D0DB
:1044580000016451000168270001655100016923CA
:104468000001665100016A230001675100016B23B6
:104478000001D89064376537663767370001D890F0
:1044880063336233613360330001605100016111AD
:104498000001621100016311D8A4D7D768C060F089
:1044A80069C061F06AC062F06BC063F01200000E70
:1044B800066E0F0E066401D031D0000E076E050E91
:1044C800076401D022D00650090D000E036E060EB7
:1044D800046EF3500326F45004220750010DF350E4
:1044E8000324D96EF4500420DA6EDF50056E0750AD
:1044F800010DF3500124D96EF4500220DA6E0550F4
:10450800DE18D8A402D0072ADAD7060E0718D8A4CE
:1045180003D00650030F1200062ACBD70400000E62
:1045280012000001636F03C365F0050E3C18D8A4A0
:104538002CD0310E00016519D8B405D0300E000119
:104548006519D8A422D0060E00016319D8A402D098
:10455800C70E01D0BB0E0001646F310E0001651952
:10456800D8A409D064C060F0010E0001616F000E8C
:10457800BAEC25F008D064C060F0000E0001616F4D
:10458800000EBAEC25F04B0E1200450E1200000E7C
:104598000001656F00016551010D61C063F062C0E3
:1045A80064F0F35000016327F4500001642363C0F2
:1045B800F6FF64C0F7FF000EF86E0F0EF76403D025
:1045C8000800F55005D0F6CFE1FFF7CFE2FFE7503E
:1045D8000001666F0001652B240E00016619D8B42E
:1045E80004D000016651AEEC26F0240E00016619D5
:1045F800D8A4D0D7040012000201E551020D010E23
:10460800F326000EF422000EF324D96E070EF420D0
:10461800DA6EDF5000017B6F0201E551020D000EDA
:10462800F324D96E070EF420DA6EDF5000EC50F058
:104638000201E52B0201E4510201E519D8A406D0D4
:10464800000E0201E46F000E0201E56F0201E45161
:104658000201E519D8B41200CFD700016251000158
:104668006311D8B426D0010E0001646F06D0000192
:10467800D890623763370001642B000163AFF7D726
:10468800000162510001605D000163510001615940
:10469800D8A008D0000162510001605F0001635199
:1046A8000001615B0001D890633362330001642F1D
:1046B800E7D760C060F061C061F01200010E0F0121
:1046C800386F8080928089829292899492948986A8
:1046D8009296000E0F013A6F8B8694968B82948285
:1046E8008B8894988B8A949A8A869396828C949CC9
:1046F8008B8E948E000E0F01396F8180938081829A
:104708009382818493848A889398818A938A8A8CF5
:10471800939C818E938E1200076E030E075E0750DE
:10472800080DF3CF06F0000E086E070E086401D0DE
:104738001ED00750090D000E046E060E056EF350CC
:104748000426F45005220850010DF3500424D96EB4
:10475800F4500520DA6E000EDF6E06500824016E54
:10476800000E026E010ED3EC25F04B0E1200040071
:10477800450E12004EC060F04FC061F050C062F0AC
:1047880051C063F06D0E0001646F4E0E656FC60E6A
:10479800666F410E676F20EC22F060C04EF061C07A
:1047A8004FF062C050F063C051F0390E4E26300E03
:1047B8004F22000E5022000E5122FF0E501400010D
:1047C8006C6F7F0E511400016D6F120053A018D04A
:1047D800120E0001626F320E0001636F0001632F39
:1047E800FDD70001622FF7D7040000016007D8A0A9
:1047F80061070001605100016111D8B41200E8D7C7
:10480800040E0001636F0001632FFDD7040000014F
:104818006007D8A061070001605100016111D8B498
:104828001200EED70001616F0201E451020D000E83
:10483800F324D96E070EF420DA6E61C0DFFF02019F
:10484800E451020D010EF326000EF422000EF324AB
:10485800D96E070EF420DA6E60C0DFFF0201E42B88
:10486800310E0201E4651200310E0201E46F1200FC
:10487800026E0201E451020D000EF324D96E070EF8
:10488800F420DA6E02C0DFFF0201E451020D010ECE
:10489800F326000EF422000EF324D96E070EF4203E
:1048A800DA6E01C0DFFF0201E42B310E0201E4657C
:1048B8001200310E0201E46F1200DB0EF66EAB0E31
:1048C800F76E20EE67F00C0E0900F5CFDEFFE80664
:1048D800FBE2AB98000E0001616FC80E606FEAEC56
:1048E80023F0670E0001616F000E0001626FCBECD0
:1048F80022F0000E0001616FC80E606FEAEC23F031
:104908001200250EF66EAB0EF76E20EE67F00F0E56
:104918000900F5CFDEFFE806FBE2AB98000E0001C8
:10492800616FC80E606FEAEC23F0670E0001616FDB
:10493800000E0001626FCBEC22F0000E0001616FE7
:10494800C80E606FEAEC23F01200870EF66EAC0E0C
:10495800F76E20EE67F00A0E0900F5CFDEFFE806D5
:10496800FBE2AB98000E0001616FC80E606FEAECC5
:1049780023F0670E0001616F000E0001626FCBEC3F
:1049880022F0000E0001616FC80E606FEAEC23F0A0
:1049980012000001616F080E0001626F000E000135
:1049A800636FD89000016135000163350001636FC2
:1049B8000001D8906137000160510001635DD8A003
:1049C80004D0000160510001635F0001622FE9D744
:1049D80000016351120003500410D8B418D0010E1E
:1049E800056E04D0D89003360436052A04AEFAD7EB
:1049F8000350015C04500258D8A004D00350015E53
:104A08000450025AD89004320332052EF1D701C05F
:104A180001F002C002F01200100E0001606F000EDB
:104A280067EC26F0230AD8B409D0300E0001606F75
:104A3800000E67EC26F0230AD8A407D0030E020163
:104A4800D76F000E0201D56F1200010E0201D76F59
:104A5800010E0201D56F12002A0E03010319D8A412
:104A680017D02A0E03010419D8A412D0230E03016B
:104A78000519D8A40DD0000E0001606F000E0001CA
:104A8800616F000EBAEC25F015EC66F04B0E1200C3
:104A9800450E120003C363F02F0E0001636504D0B6
:104AA800390E0001636502D0450E1200230E030182
:104AB8000419D8B402D0450E1200B90E0001606F77
:104AC80003C361F0000EBAEC25F04B0E1200000192
:104AD800635100016503F3CF67F0F4CF68F000017C
:104AE800635100016603F350000168270001645117
:104AF80000016503F3500001682767C063F068C0D0
:104B080064F0120060C066F061C067F009D066C04A
:104B1800D9FF67C0DAFF62C0DFFF0001664B672B71
:104B280000016407D8A0650700016429F0E10001CD
:104B38006529D8B41200EBD70F0E0001606F000E84
:104B480067EC26F00001636F0001632B9F0E0001E4
:104B5800636503D0000E0001636F0F0E0001606FE4
:104B680063C061F0000EBAEC25F012000001626F1C
:104B7800F29E62C0AAFF60C0A9FF61C0A8FFA69C00
:104B8800A69EA684F29E550EA76EAA0EA76EA682B2
:104B9800F28EA694A6B2FED70400F28E1200036E1F
:104BA800F29E03C0AAFF01C0A9FF02C0A8FFA69CED
:104BB800A69EA684F29E550EA76EAA0EA76EA68282
:104BC800F28EA694A6B2FED70400F28E1200260E2C
:104BD800AC6E900EAB6EC80EB86E670EAF6E000E60
:104BE800B06E260E726E900E716EC80E706ECF0E7D
:104BF800756E000E766E618AA38A1200E00E0001BF
:104C0800606F000E67EC26F03B6EC80E0001606F07
:104C1800000E67EC26F0406EBB0E0001606F000EC0
:104C280067EC26F0446E12000001626F000E00016E
:104C3800616F3A0E0001626107D02F0E00016265B4
:104C480003D0010E0001616F61C060F000016031A6
:104C5800120068C060F069C061F00001626B8E0EDE
:104C68000001636F000E0001646FF1EC19F060C081
:104C780068F061C069F062C06AF012000150030276
:104C8800F3CF05F0F4CF06F001500402F3500626E6
:104C980002500302F350062605C001F006C002F0D8
:104CA800120009C001F00AC002F0036A8E0E046EF9
:104CB800000E056EE6EC1EF001C009F002C00AF015
:104CC80003C00BF012000001616FF29E61C0AAFFE1
:104CD80060C0A9FFA69CA69EA680A8CF62F0F28E0F
:104CE8000400000162511200260E726E900E716E61
:104CF800C80E706ECF0E756E000E766E618AA38A2E
:104D08001200260EAC6E900EAB6EC80EB86E100E6A
:104D1800AF6E000EB06E1200000EAB6E829C949CBB
:104D28008B8E948E9D9A000E716EA39A12007C0E43
:104D3800C26E000EC16EAF0EC06E200E0F01426F24
:104D48001200AB98000E0001616FC80E606FEAECAC
:104D580023F012000001606FACA2FED7040060C00F
:104D6800ADFF1200016E72A2FED7040001C073FFEE
:0C4D78001200828C949C8B8E948E120092
:10A0000001019C6F9D0EF66EAC0EF76E20EE8EF089
:10A010000A0E0900F5CFDEFFE806FBE2A80EF66E99
:10A02000AC0EF76E20EE99F00A0E0900F5CFDEFFB8
:10A03000E806FBE2B30EF66EAC0EF76E20EEA4F06F
:10A040000A0E0900F5CFDEFFE806FBE2BE0EF66E53
:10A05000AC0EF76E20EEAFF00A0E0900F5CFDEFF72
:10A06000E806FBE2C90EF66EAC0EF76E20EEBAF013
:10A070000A0E0900F5CFDEFFE806FBE2D40EF66E0D
:10A08000AC0EF76E20EEC5F00A0E0900F5CFDEFF2C
:10A09000E806FBE2DF0EF66EAC0EF76E20EED0F0B7
:10A0A0000A0E0900F5CFDEFFE806FBE2EA0EF66EC7
:10A0B000AC0EF76E20EEDBF00A0E0900F5CFDEFFE6
:10A0C000E806FBE2F50EF66EAC0EF76E20EEE6F05B
:10A0D0000A0E0900F5CFDEFFE806FBE2000EF66E81
:10A0E000AD0EF76E20EEF1F00A0E0900F5CFDEFF9F
:10A0F000E806FBE20B0EF66EAD0EF76E21EE00F0F9
:10A100000A0E0900F5CFDEFFE806FBE2160EF66E3A
:10A11000AD0EF76E21EE0BF00A0E0900F5CFDEFF53
:10A12000E806FBE2210EF66EAD0EF76E21EE16F09C
:10A130000A0E0900F5CFDEFFE806FBE24D0EF66ED3
:10A14000AC0EF76E20EE82F00B0E0900F5CFDEFFAD
:10A15000E806FBE22C0EF66EAD0EF76E21EE21F056
:10A160000A0E0900F5CFDEFFE806FBE2370EF66EB9
:10A17000AD0EF76E21EE2CF00A0E0900F5CFDEFFD2
:10A18000E806FBE2420EF66EAD0EF76E21EE37F0FA
:10A190000A0E0900F5CFDEFFE806FBE24D0EF66E73
:10A1A000AD0EF76E21EE42F00A0E0900F5CFDEFF8C
:10A1B000E806FBE2580EF66EAD0EF76E21EE4DF09E
:10A1C0000A0E0900F5CFDEFFE806FBE2630EF66E2D
:10A1D000AD0EF76E21EE58F00A0E0900F5CFDEFF46
:10A1E000E806FBE26E0EF66EAD0EF76E21EE63F042
:10A1F0000A0E0900F5CFDEFFE806FBE2790EF66EE7
:10A20000AD0EF76E21EE6EF00A0E0900F5CFDEFFFF
:10A21000E806FBE2840EF66EAD0EF76E21EE79F0E5
:10A220000A0E0900F5CFDEFFE806FBE28F0EF66EA0
:10A23000AD0EF76E21EE84F00A0E0900F5CFDEFFB9
:10A24000E806FBE29A0EF66EAD0EF76E21EE8FF089
:10A250000A0E0900F5CFDEFFE806FBE201019C5182
:10A260000101D8A405D08E0E0001FE6F000EEED0C5
:10A2700001019C05D8A405D0990E0001FE6F000EC7
:10A28000E5D0020E01019C19D8A405D0A40E00014E
:10A29000FE6F000EDBD0030E01019C19D8A405D07F
:10A2A000AF0E0001FE6F000ED1D0040E01019C190B
:10A2B000D8A405D0BA0E0001FE6F000EC7D0050E5F
:10A2C00001019C19D8A405D0C50E0001FE6F000E37
:10A2D000BDD0070E01019C19D8A405D0D00E0001F5
:10A2E000FE6F000EB3D0060E01019C19D8A405D054
:10A2F000DB0E0001FE6F000EA9D0080E01019C19B3
:10A30000D8A405D0E60E0001FE6F000E9FD0090E06
:10A3100001019C19D8A405D0F10E0001FE6F000EBA
:10A3200095D00F0E01019C19D8A405D02C0E000168
:10A33000FE6F010E8BD00A0E01019C19D8A405D026
:10A34000000E0001FE6F010E81D00B0E01019C1961
:10A35000D8A405D00B0E0001FE6F010E77D00C0EB5
:10A3600001019C19D8A405D0160E0001FE6F010E44
:10A370006DD00D0E01019C19D8A405D0820E0001EC
:10A38000FE6F000E63D00E0E01019C19D8A405D0FB
:10A39000210E0001FE6F010E59D0100E01019C1913
:10A3A000D8A405D0370E0001FE6F010E4FD0110E5C
:10A3B00001019C19D8A405D0420E0001FE6F010EC8
:10A3C00045D0120E01019C19D8A405D04D0E0001F4
:10A3D000FE6F010E3BD0130E01019C19D8A405D0CD
:10A3E000580E0001FE6F010E31D0140E01019C19B0
:10A3F000D8A405D0630E0001FE6F010E27D0150E04
:10A4000001019C19D8A405D06E0E0001FE6F010E4B
:10A410001DD0160E01019C19D8A405D0790E00019B
:10A42000FE6F010E13D0170E01019C19D8A405D0A0
:10A43000840E0001FE6F010E09D0180E01019C1957
:10A44000D8A412008F0E0001FE6F010E0001FF6FF5
:10A45000000E01019A6F050E01019A6501D010D01E
:10A4600001019A51DC0D640EF324D96E070EF4201D
:10A47000DA6E500EDE18D8B403D001019A2BEBD758
:10A48000060E01019A19D8B40BD1140E01019B6F6D
:10A49000DB0E01019B6501D003D101019A51DC0D56
:10A4A000640E00017C6F070E00017D6FF350000108
:10A4B0007C27F45000017D2301019B51010DF350D5
:10A4C00000017C25D96EF45000017D21DA6E0D0E5D
:10A4D000DE18D8A4E2D0A00E01019B61DED0020EEE
:10A4E0000001FC6F0001FC51010DF3500001FE253D
:10A4F000D96EF4500001FF21DA6EDF500001FD6FCC
:10A500000001FC2B01019A51DC0D640E00017C6FEF
:10A51000070E00017D6FF35000017C27F45000010D
:10A520007D2301019B51010DF35000017C25D96E63
:10A53000F45000017D21DA6EFDC0DFFF01019B2B8D
:10A54000240E0001FD19D8A4CDD701019A51DC0DCC
:10A55000FF0E00017C6FFF0E00017D6F01019B511A
:10A5600000017E6F7F6B00017C5100017E2700019E
:10A570007D5100017F23640E0001806F070E0001F2
:10A58000816F00017E510001802700017F51000191
:10A590008123F35000018025D96EF4500001812100
:10A5A000DA6EB90E0001606F000E67EC26F0DF6E08
:10A5B00001019A51DC0D640E00017C6F070E000151
:10A5C0007D6FF35000017C27F45000017D230101D1
:10A5D0009B51010DF35000017C25D96EF450000110
:10A5E0007D21DA6E7BC060F00001616B000E00011E
:10A5F000636F0A0E626F16EC1DF000016051300FA0
:10A60000DF6E01019B2B01019A51DC0D640E0001EC
:10A610007C6F070E00017D6FF35000017C27F45022
:10A6200000017D2301019B51010DF35000017C25A8
:10A63000D96EF45000017D21DA6E7BC060F000011C
:10A64000616B000E0001636F0A0E626F90EC1FF0E9
:10A6500000016051300FDF6E01019B2B01019A5107
:10A66000DC0D640E00017C6F070E00017D6FF3505E
:10A6700000017C27F45000017D2301019B51010D55
:10A68000F35000017C25D96EF45000017D21DA6E73
:10A690000D0EDF6E01019B2B120001019B2BF8D6E2
:10A6A0000F0E0001606F000E67EC26F00001FC6FDA
:10A6B00092EC16F001019B6F050E01019C19D8B4B4
:10A6C00004D001019C05D8A429D001019B51DC0DC7
:10A6D000640EF324D96E070EF420DA6E540EDF6E8A
:10A6E00001019B51DC0D050EF326000EF422640ED1
:10A6F000F324D96E070EF420DA6E010EDF6E01012D
:10A700009B51DC0D060EF326000EF422640EF3249A
:10A71000D96E070EF420DA6E010EDF6E060E01010F
:10A720009B61120001019B51DC0D010EF326000E0E
:10A73000F422640EF324D96E070EF420DA6E010EB3
:10A74000DF6E140E01019A6FFCC063F09AC164F0D1
:10A7500001019B5146EC7DF001019A6F000E000152
:10A76000FC6F0001FC51010DF3500001FE25D96E74
:10A77000F4500001FF21DA6EDF500001FD6F00018F
:10A78000FC2B01019B51DC0D640E00017C6F070E58
:10A7900000017D6FF35000017C27F45000017D2300
:10A7A00001019A51010DF35000017C25D96EF4503E
:10A7B00000017D21DA6EFDC0DFFF01019A2B240E1E
:10A7C0000001FD19D8A4CDD701019B51DC0DFF0E6E
:10A7D00000017C6FFF0E00017D6F01019A510001A5
:10A7E0007E6F7F6B00017C5100017E2700017D514F
:10A7F00000017F23640E0001806F070E0001816F4E
:10A8000000017E510001802700017F51000181235A
:10A81000F35000018025D96EF45000018121DA6ED9
:10A82000B90E0001606F000E67EC26F0DF6E0101CB
:10A830009B51DC0D640E00017C6F070E00017D6FE3
:10A84000F35000017C27F45000017D2301019A514F
:10A85000010DF35000017C25D96EF45000017D21DB
:10A86000DA6E7BC060F00001616B000E0001636F67
:10A870000A0E626F16EC1DF000016051300FDF6EA2
:10A8800001019A2B01019B51DC0D640E00017C6FCC
:10A89000070E00017D6FF35000017C27F45000018A
:10A8A0007D2301019A51010DF35000017C25D96EE1
:10A8B000F45000017D21DA6E7BC060F00001616B15
:10A8C000000E0001636F0A0E626F90EC1FF0000132
:10A8D0006051300FDF6E01019A2B01019B51DC0D9D
:10A8E000640E00017C6F070E00017D6FF3500001C4
:10A8F0007C27F45000017D2301019A51010DF35092
:10A9000000017C25D96EF45000017D21DA6E0D0E18
:10A91000DF6E01019A2B12000041545E53434647FB
:10A920003D224750494F2F6D6F64652F53594E4359
:10A93000222C22737464220D0A240041545E534970
:10A9400053533D312C616464726573732C22736FB1
:10A95000636B7463703A2F2F240041545E53434657
:10A96000473D225552432F447374496663222C227B
:10A970006D646D220D0A2400415423534346473D24
:10A98000312C332C3330302C39302C3230302C35C4
:10A99000300D0A240041545E534953533D312C730A
:10A9A0007276547970652C536F636B65740D0A244D
:10A9B0000041545E534953533D312C7372765479A0
:10A9C00070652C536F636B65740D0A240041545EEF
:10A9D000534943533D302C636F6E747970652C6717
:10A9E000707273300D0A240041542B43504D533D77
:10A9F000224D45222C224D45222C224D45220D0A66
:10AA0000240077796C65736C74652E6777372E76C2
:10AA10007A77656E7470230041545E534953533DF9
:10AA2000312C636F6E49642C300D0A240041545E52
:10AA3000534953533D312C636F6E49642C310D0AD9
:10AA4000240041542B434744434F4E543D312C2264
:10AA50004950222C22240041542B434744434F4E5B
:10AA6000543D332C224950222C222400415423539C
:10AA7000524543563D312C3230300D0A24004154AA
:10AA80002353524543563D312C3230300D0A2400B9
:10AA900041545E534953523D312C3230300D0A241B
:10AAA000004154234750494F3D312C302C320D0A80
:10AAB00024004154234750494F3D372C302C320D50
:10AAC0000A240041542B434D474C3D22414C4C221B
:10AAD0000D0A2400303132333435363738394142AB
:10AAE000434445460041545E534943533D302C6135
:10AAF000706E2C240041542B434750414444523D36
:10AB0000310D0A240041545E534C45443D322C35EE
:10AB1000300D0A24004154235353454E44455854A4
:10AB20003D312C240041542353474143543D332CA1
:10AB3000300D0A240041542353474143543D332CE4
:10AB4000310D0A24004154235353454E4445585473
:10AB50003D312C24006C316E79527F266F341941BF
:10AB60001B543A641F3139382E31322E3131372E91
:10AB7000313238230037322E3139372E3137312EEA
:10AB8000323334230041545E534943413D312C312B
:10AB90000D0A240041542B434E4D493D312C310DBB
:10ABA0000A240041542B43474154543D310D0A249B
:10ABB0000041542B43474154543D310D0A24004178
:10ABC000542B43474154543D310D0A24002B43502C
:10ABD000494E3A205245414459240041545E53495C
:10ABE00053433D310D0A240041545E5349534F3DB8
:10ABF000310D0A240041545E534C45443D320D0A48
:10AC00002400415423534C45443D340D0A24004153
:10AC1000542B43455245473F0D0A240041542B43D2
:10AC20004D47463D310D0A240041545E5349535768
:10AC30003D312C240041542353443D312C302C24ED
:10AC40000041542353443D312C302C240031382C06
:10AC500031313334373030240041542B435245478F
:10AC60003F0D0A240041542B4350494E3F0D0A2406
:10AC700000222C302C302C310D0A2400222C302CB8
:10AC8000302C300D0A240041542353483D310D0A25
:10AC90002400222C302C302C310D0A240031382C89
:10ACA000313131313030240031382C4536303230BA
:10ACB00030240031382C31333032303024003138F8
:10ACC0002C313338333030240031382C333338339F
:10ACD0003030240031382C453630313030240031CA
:10ACE000382C313338363030240031382C31333879
:10ACF000343030240031382C3131353430302400B8
:10AD000031382C313134303030240031382C453357
:10AD100038313030240031382C3131363230302463
:10AD20000031382C313133323030240031382C317D
:10AD30003130313030240031382C3131363130303F
:10AD4000240031382C313135323030240031382C68
:10AD5000313135353030240031382C313138303014
:10AD600030240031382C3131383130302400313842
:10AD70002C313138323030240031382C31313833F5
:10AD80003030240031382C31313834303024003127
:10AD9000382C313138353030240031382C453330BF
:10ADA000363030240041542B434D47533D2224007C
:10ADB00041542B4353510D0A24002B434552454720
:10ADC0003A20240041542B434D47443D2400415434
:10ADD0002B434D47523D24002B435245473A2024F4
:10ADE00000415449340D0A2400415449310D0A24CC
:10ADF0000041540D0A2400313131312300373534FC
:10AE0000382300343030392300220D0A2400323038
:10AE100034300023002300230041545E53504F5729
:10AE20003D312C302C300D0A240041542B49505216
:10AE30003D31393230300D0A240041542B43465500
:10AE40004E3D310D0A2400537570657220485542FD
:10AE50002C24004C453931300D0A240041545C51FA
:10AE6000300D0A2400454D5333310D0A24004C4562
:10AE70003836360D0A2400536D6F6B65722C240032
:10AE800041542B5645523D2400415445310D0A246E
:10AE900000504C53380D0A240000FFC1D7F0000EBB
:10AEA0000001DC6F0101FF51010D000EF324D96E8A
:10AEB000050EF420DA6E320EDE18D8A4DBD30101C1
:10AEC000FF2B0101FF51010D000EF324D96E050E79
:10AED000F420DA6E300EDE18D8A4C9D30101FF5178
:10AEE0000001D36FD46B010E0001D327000ED423D1
:10AEF000000E0001D325D96E050E0001D421DA6EB3
:10AF0000230EDE18D8A4B3D3020E0101FF27580E7A
:10AF10000001DC6F0101FF51010D000EF324D96E19
:10AF2000050EF420DA6E530EDE18D8B40DD00101F0
:10AF3000FF51010D000EF324D96E050EF420DA6ED8
:10AF4000730EDE18D8A4BDD10101FF510001D36FEB
:10AF5000D46B010E0001D327000ED423000E000194
:10AF6000D325D96E050E0001D421DA6E450EDE1808
:10AF7000D8B416D00101FF510001D36FD46B010E7C
:10AF80000001D327000ED423000E0001D325D96E73
:10AF9000050E0001D421DA6E650EDE18D8A491D119
:10AFA0000101FF510001D36FD46B020E0001D327C2
:10AFB000000ED423000E0001D325D96E050E00012A
:10AFC000D421DA6E4E0EDE18D8B416D00101FF512E
:10AFD0000001D36FD46B020E0001D327000ED423DF
:10AFE000000E0001D325D96E050E0001D421DA6EC2
:10AFF0006E0EDE18D8A465D10101FF510001D36F98
:10B00000D46B030E0001D327000ED423000E0001E1
:10B01000D325D96E050E0001D421DA6E530EDE1849
:10B02000D8B416D00101FF510001D36FD46B030EC9
:10B030000001D327000ED423000E0001D325D96EC2
:10B04000050E0001D421DA6E730EDE18D8A439D1B2
:10B050000101FF510001D36FD46B040E0001D3270F
:10B06000000ED423000E0001D325D96E050E000179
:10B07000D421DA6E4F0EDE18D8B416D00101FF517C
:10B080000001D36FD46B040E0001D327000ED4232C
:10B09000000E0001D325D96E050E0001D421DA6E11
:10B0A0006F0EDE18D8A40DD10101FF510001D36F3E
:10B0B000D46B050E0001D327000ED423000E00012F
:10B0C000D325D96E050E0001D421DA6E520EDE189A
:10B0D000D8B416D00101FF510001D36FD46B050E17
:10B0E0000001D327000ED423000E0001D325D96E12
:10B0F000050E0001D421DA6E720EDE18D8A4E1D05C
:10B100000101FF510001D36FD46B060E0001D3275C
:10B11000000ED423000E0001D325D96E050E0001C8
:10B12000D421DA6E230EDE18D8A4CBD0000E000195
:10B13000DD6F000E0001E06F0F0E0001E06501D031
:10B140009ED10001E0510001D8B40FD0040E0001DF
:10B15000E019D8B40AD0090E0001E019D8B405D01E
:10B160000E0E0001E019D8A46DD00001DD51010DD3
:10B17000000EF324D96E040EF420DA6E280EDF6E72
:10B180000001DD2B0001E0510001D8A40ED0000128
:10B19000DD51010D000EF324D96E040EF420DA6E99
:10B1A000310E41D00001DD2B40D0040E0001E0192A
:10B1B000D8B42FD0090E0001E019D8A418D000018E
